:100000000C945B010C9483010C9483010C94830188
:100010000C9483010C9483010C9483010C94830150
:100020000C9483010C9483010C9483010C94830140
:100030000C9483010C9483010C9483010C94830130
:100040000C9421190C9483010C9486130C94601366
:100050000C9483010C9483010C9483010C94830110
:100060000C9443050C94830123002300230046468F
:100070002300303023003031230023000000000033
:1000800000000000000000002A00444F4E45000020
:100090004656303030333030004642323030303027
:1000A00030000000000000240027002A00000000AB
:1000B00000250028002B0000000000230026002956
:1000C0000004040404040404040202020202020301
:1000D000030303030301020408102040800102040B
:1000E000081020010204081020000000080002018E
:1000F00000000304070000000000000000444F4E11
:100100004500444F4E4500465A4200465A4100467B
:100110005400444F4E4500454E440046464D4F4422
:100120004500420046444200444F4E4500410046CF
:10013000444100465155495400420046524541440D
:10014000420041004652454144410057414B450061
:100150004657414B5550004657414B454500574186
:100160004B4500465743585858005A5A5A00465370
:100170004C454550004200464C42004100464C412F
:100180000043454E544552004643454E54520046A6
:10019000544D50524F0046504F53524F00464F005F
:1001A00046490046424D4F44450046414D4F444567
:1001B000002100464D4D4F44450000407A10F35A4F
:1001C00000A0724E18090010A5D4E80000E8764897
:1001D000170000E40B54020000CA9A3B000000E143
:1001E000F505000080969800000040420F000000D6
:1001F000A08601000000102700000000E8030000B6
:1002000000006400000000000A000000000001007F
:10021000000000002C76D888DC674F0823DFC1DFA0
:10022000AE59E1B1B796E5E3E453C63AE6519976A3
:1002300096E8E6C28426EB898C9B62ED407C6FFCDD
:10024000EFBC9C9F40F2BAA56FA5F490055A2AF71F
:100250005C936B6CF9676DC11BFCE0E40D47FEF528
:1002600020E6B500D0ED902E030094357705008090
:10027000841E080000204E0A000000C80C333333EF
:10028000330F986E12831141EF8D2114893BE6558F
:1002900016CFFEE6DB18D1844B381BF77C1D901D72
:1002A000A4BBE424203284725E228100C9F124ECD4
:1002B000A1E53D27641D11241FBECFEFD8E0DEBFAE
:1002C000CDBF12E0A0E0B1E0E0EEF0E602C00590A4
:1002D0000D92A23DB107D9F724E0A2EDB2E001C032
:1002E0001D92AE3BB207E1F711E0CBE5D1E004C0CF
:1002F0002197FE010E945123CA35D107C9F70E94F8
:10030000E41E0C946E300C940000CF93DF93EC014C
:1003100020E030E0A9016F85788989899A890E9457
:100320006C2418161CF4EBA1FCA102C0EDA1FEA1E7
:10033000DF91CF910994DC0112962C91213069F064
:1003400028F0223089F02430B1F00895DC01ED91DD
:10035000FC910280F381E02D0994DC01ED91FC9188
:100360000480F581E02D0DC0DC01ED91FC9106804B
:10037000F781E02D06C0DC01ED91FC910084F18550
:10038000E02D099485ED8093BC008091BC0084FD34
:10039000FCCF1092610308954091F402262F30E0C3
:1003A000240F311D21323105DCF42091610324300A
:1003B000C9F4FC0180E090E0861758F43091F40213
:1003C0002191DC01AE52BD4FA30FB11D2C930196BC
:1003D000F3CF8091F402680F6093F40280E00895F7
:1003E00081E0089582E008950895E0911A038091D4
:1003F0001903E81730F4F0E0E55EFC4F808190E0EF
:1004000008958FEF9FEF089590911A03809119033B
:10041000981750F4E92FF0E0E55EFC4F208130E0C2
:100420009F5F90931A0302C02FEF3FEFC901089519
:100430008091190390E020911A03821B910908957D
:10044000CF92DF92EF92FF920F931F93CF93DF93A0
:100450007C01262F972F8A0180916203882391F0D7
:10046000C62FD72F6E01C40ED51ECC15DD0571F039
:100470006991D701ED91FC910190F081E02DC701C8
:100480000995F3CF642F822F0E94CC01C801DF9120
:10049000CF911F910F91FF90EF90DF90CF90089533
:1004A000CF93DF931F92CDB7DEB7698320916203AC
:1004B0002223D1F020918503203240F021E030E06A
:1004C000FC013383228380E090E015C080916303B8
:1004D000E82FF0E0EC59FC4F998190838F5F809377
:1004E00063038093850305C061E0CE0101960E94FD
:1004F000CC0181E090E00F90DF91CF9108950895B5
:100500000895089580E008950895CF93DF93EC0156
:10051000613089F050F06230E1F0633061F561E004
:100520008B810E946F1860E019C061E08B810E948E
:100530006F1860E005C060E08B810E946F1861E079
:100540008C810E946F1861E08D810E946F1860E0BD
:100550000DC060E08B810E946F1861E08C810E9469
:100560006F1860E08D810E946F1861E08E81DF91CD
:10057000CF910C946F18DF91CF910895CF93DF93B3
:10058000EC01613049F030F0623061F06330A1F489
:1005900060E009C060E001C061E08B810E946F18DB
:1005A00061E005C061E08B810E946F1860E08C8182
:1005B000DF91CF910C946F18DF91CF9108951F9325
:1005C000CF93DF93EC0111E020E030E0A9016F85CB
:1005D000788989899A890E946C2418160CF010E099
:1005E000612F8C810E946F1861E08B810E946F18CF
:1005F00060E08B81DF91CF911F910C946F188F92E7
:100600009F92AF92BF92CF92DF92EF92FF920F93A1
:100610001F93CF93DF93EC018B859C85AD85BE85C1
:100620000F81188529853A85BC01CD01601B710BAE
:10063000820B930B09F4D0C08AF00E94992E9B0183
:10064000AC010E9458232F89388D498D5A8D0E9404
:10065000F82E0E9477246B017C011BC09095809539
:10066000709561957F4F8F4F9F4F0E94992E9B01F0
:10067000AC010E9458232F89388D498D5A8D0E94D4
:10068000F82E0E9477246B017C01F7FAF094F7F8BA
:10069000F0948F849888A988BA88A5019401C7012D
:1006A000B6010E946C2418160CF043C020E030E024
:1006B000A901C501B4010E94922E81110BC06F895E
:1006C000788D898D9A8D9B01AC010E9458230E94E0
:1006D00077241BC0A50194016F89788D898D9A8D2F
:1006E0000E94C4236B017C0120E030E0A9010E943C
:1006F0006C24181624F0F7FAF094F7F8F094A70198
:100700009601C501B4010E9458237B018C01BB886E
:10071000CC88DD88CE892B2D3C2D4D2D5C2F0E9461
:100720006C2418160CF05DC03B2D7C2D8D2D9C2F5C
:100730005FC0A5019401C701B6010E94922E87FFF8
:1007400054C020E030E0A901C501B4010E94922EFE
:10075000811111C06F89788D898D9A8D9B01AC01B3
:100760000E9458230E9477246B017C01F7FAF094D1
:10077000F7F8F0941DC0A50194016F89788D898DDB
:100780009A8D0E94C4236B017C0120E030E0A90116
:100790000E946C24181624F0F7FAF094F7F8F094FD
:1007A000A7019601C501B4010E9457236B017C018A
:1007B0008B889C88AD88BE88B7FAB094B7F8B0949F
:1007C000A5019401C701B6010E94922E87FF0DC0BA
:1007D000382D792DC5010CC030E070E080E090E04C
:1007E00007C03E2D7F2DC80103C03C2D7D2DC701C4
:1007F000C32ED72E7C01C701B601DF91CF911F9187
:100800000F91FF90EF90DF90CF90BF90AF909F90AF
:100810008F900895CF93DF93EC016BEC71E00E9411
:10082000CE0CCE01DF91CF9108950F931F93CF93FC
:10083000DF9300D0CDB7DEB7152F032FFC018081E9
:1008400091E090936203809384031092630310926B
:100850008503F4E06F9FB00111246A5F7F4F83E24C
:1008600094E02A8349830E9450024981842F912F6A
:100870000E941B09812F90E00E941B092A81822F70
:10088000902F0E941B09802F90E00E941B090F905F
:100890000F90DF91CF911F910F910C94BE089A0198
:1008A000CB96211540E1340728F020E030E040E00D
:1008B00050E102C040E050E00C9415040F931F93E8
:1008C000CF93DF93EC01142F9C85413019F493FFF3
:1008D00005C00DC0423049F493FF09C0613019F4DE
:1008E000905F9C8743C09051FCCF433031F461301E
:1008F00011F09850F6CF985FF4CF4430B9F56130DD
:1009000011F49F5F01C091509C872C852F732C8719
:10091000822F90E0203148F4E5E3F1E0E81BF90B89
:100920004081FC01EB5DFE4F1FC030EF320F3031D4
:1009300038F4FC01EB5EFE4F4081E5E4F1E012C0CB
:100940002052203148F4E5E5F1E0E81BF90B408145
:10095000FC01EB5FFE4F08C0FC01EB50FF4F4081F4
:10096000E5E6F1E0E81BF90B008102C04FEF0FEF65
:100970008C858F738C8780E1489FA00111246C8146
:100980008D859E850E944F0480E1089FA00111245F
:100990006F818D859E850E944F04EC851430A1F4F3
:1009A000E03110F413E001C010E080EF8E0F8031D1
:1009B00008F4166080EE8E0F803108F41C60E0535E
:1009C000E03168F419600BC0E695E695E695E830ED
:1009D00028F4F0E0E35EFE4F108101C010E08D8549
:1009E0009E8520E030E010FF03C040E050E102C0EF
:1009F00040E050E06E81CB960E9415048D859E8567
:100A000020E030E011FF03C040E050E102C040E0D0
:100A100050E06885CB960E9415048D859E8520E068
:100A200030E012FF03C040E050E102C040E050E07F
:100A30006D81CB960E9415048D859E8520E030E067
:100A400013FF03C040E050E102C040E050E0698580
:100A5000CB960E9415048C85DF91CF911F910F9149
:100A600008954091040162E08091570490915804E8
:100A70000C945E044091040161E0809157049091D0
:100A800058040C945E041F920F920FB60F9211241B
:100A90002F933F934F935F936F937F938F939F9386
:100AA000AF93BF93EF93FF938091B900887F803617
:100AB00009F49CC068F5883209F45BC090F4803179
:100AC00009F454C038F4882309F4F6C0883009F4D6
:100AD0004DC0F6C0883109F44CC0803209F45DC0C5
:100AE000EFC0803409F468C048F4803309F455C07D
:100AF000883309F0E5C080935F03D8C0803509F4DE
:100B00004FC0883509F45DC0883409F0D9C0D6C01B
:100B1000883909F4C7C0A8F4883709F467C038F4E5
:100B2000883609F463C0803709F460C0C9C08838CA
:100B300009F4B8C0803909F45FC0803809F0C0C03A
:100B40005BC0803B09F486C038F4803A09F466C083
:100B5000883A09F47FC0B4C0803C09F4A7C0883C3F
:100B600009F4A4C0883B09F48AC0AAC080913C0360
:100B700010C090915E0380915D03981770F5E0912D
:100B80005E0381E08E0F80935E03F0E0E35CFC4F38
:100B900080818093BB0085EC86C080935F038EC00C
:100BA000E0915E0381E08E0F80935E038091BB0035
:100BB000F0E0E35CFC4F808390915E0380915D03E5
:100BC0006EC0E0915E0381E08E0F80935E038091A2
:100BD000BB00F0E0E35CFC4F8083809160038111F7
:100BE0006DC081E080933B0384EA61C083E0809321
:100BF000610310921803CFCF80911803803208F060
:100C000051C0E091180381E08E0F8093180380910A
:100C1000BB00F0E0E850FD4F8083BDCF85EC8093B2
:100C2000BC001092610380911803803230F4E0918F
:100C30001803F0E0E850FD4F10826091180370E057
:100C4000E091F602F091F70288EF92E00995109298
:100C5000180336C084E0809361031092F50210926D
:100C6000F402E091F202F091F30209958091F4020E
:100C7000811105C081E08093F4021092D202E091CC
:100C8000F50281E08E0F8093F502F0E0EE52FD4F09
:100C900080818093BB009091F5028091F4029817B7
:100CA00008F479CF85E88093BC000AC085EC809376
:100CB000BC001092610304C010925F030E94C20145
:100CC000FF91EF91BF91AF919F918F917F916F9124
:100CD0005F914F913F912F910F900FBE0F901F90FA
:100CE0001895AF92BF92CF92DF92EF92FF920F933F
:100CF0001F93CF93DF931F92CDB7DEB75C017B01CB
:100D00008B016C0184E0C80ED11CF80161918F0148
:100D1000C50169830E94B62F6981681719F0C50162
:100D20000E94BE2FFFEFAF1ABF0AAC14BD0469F7D3
:100D3000C7010F90DF91CF911F910F91FF90EF901E
:100D4000DF90CF90BF90AF90089581E00E94B909E5
:100D500021E092270E9456090E9415196093980479
:100D60007093990480939A0490939B0408950F9331
:100D70001F93CF93DF938C01C0E0D0E0C017D10761
:100D8000B4F461E086E00E946F1864E670E080E0F1
:100D900090E00E94DB1860E086E00E946F1864E635
:100DA00070E080E090E00E94DB182196E7CFDF91B1
:100DB000CF911F910F910895CF93DF93C0910E01B2
:100DC000CC2309F440C0D82F0E94E60990910E016F
:100DD0009923D9F181113BC010920E0180910F012E
:100DE00090911001A0911101B09112018093A00483
:100DF0009093A104A093A204B093A3048091060150
:100E000090910701A0910801B091090180939C0481
:100E100090939D04A0939E04B0939F0460E087E0AC
:100E20000E946F1860E086E00E946F18DD2359F081
:100E30008091A5049091A604DC01ED91FC910084C1
:100E4000F185E02D0995C0E010C08823E1F3809181
:100E5000A5049091A604DC01ED91FC910284F38538
:100E6000E02D099581E080930E018C2FDF91CF91C9
:100E70000895CF93DF9300D000D0CDB7DEB7809137
:100E8000370490913804A0913904B0913A048093CA
:100E9000060190930701A0930801B093090189838B
:100EA0009A83AB83BC83BE016F5F7F4F80E090E08D
:100EB0000E9471068091060190910701A09108019E
:100EC000B091090180933B0490933C04A0933D04AE
:100ED000B0933E040E94200940913B0450913C0491
:100EE00060913D0470913E048091370490913804E4
:100EF000A0913904B0913A04481759076A077B0753
:100F000011F00E94E60960E087E00E946F1860E03F
:100F100086E00E946F1810920E010F900F900F90B4
:100F20000F90DF91CF910895809106019091070174
:100F3000A0910801B091090180933B0490933C0477
:100F4000A0933D04B0933E040E94200981E0809369
:100F50000E014091060150910701609108017091C6
:100F600009018091370490913804A0913904B0911F
:100F70003A04481759076A077B073CF461E087E0A9
:100F80000E946F1860E086E006C061E086E00E9483
:100F90006F1860E087E00C946F18CF93DF9300D058
:100FA00000D0CDB7DEB76093060170930701809340
:100FB00008019093090169837A838B839C83BE0126
:100FC0006F5F7F4F80E090E00E9471060F900F905E
:100FD0000F900F90DF91CF910895CF92DF92EF9213
:100FE000FF920F931F93CF93DF9300D000D0CDB724
:100FF000DEB76C01F62EE82E29833A834B835C839F
:101000000E9412168C010E94151961E08F2D0E941A
:101010006F1829813A814B815C81CA01B9010E9414
:10102000CD070E9494074091370450913804609195
:10103000390470913A0485E0C816D10479F4012B83
:1010400001F54230510561057105DCF080E00E9438
:10105000DC068E2D0E9412168C01E5CF84E0C816A6
:10106000D10479F4012B69F400910A0110910B016C
:1010700020910C0130910D01401751076207730751
:101080002CF30E94390780E090E0A8ECB2E4809352
:10109000430490934404A0934504B09346040E94F3
:1010A000200960E08F2D0F900F900F900F90DF912F
:1010B000CF911F910F91FF90EF90DF90CF900C9404
:1010C0006F18CF92DF92EF92FF920F931F93CF93FF
:1010D000DF9300D000D0CDB7DEB719821A821B8211
:1010E0001C827E0125E0E20EF11C8E010F5F1F4F76
:1010F0006C01C01AD10AC601800F911F0E94B62F41
:10110000F80181938F01EE15FF05A9F769817A81B6
:101110008B819C810F900F900F900F90DF91CF915A
:101120001F910F91FF90EF90DF90CF9008950F9354
:101130001F93CF93DF93EC0188819981009729F069
:101140002A813B812617370788F48B016F5F7F4F19
:101150000E94F925009761F0998388831B830A8395
:101160002C813D81232B11F4FC01108281E001C010
:1011700080E0DF91CF911F910F9108952091850319
:1011800090918403213208F04AC08091610381115B
:10119000FCCF32E03093610331E0309360033FEFE6
:1011A00030935F0310925E0320935D03A4E6B3E0E7
:1011B0004DE353E0FA013E2F341B321718F43D91F2
:1011C0003193F9CF10923C0320913C03990F922B5D
:1011D00090933C0390913B03913061F410923B0358
:1011E00090913C039093BB009091BC0093FDF8CF8D
:1011F00095EC01C095EE9093BC0090916103923004
:10120000E1F390915F039F3F79F080915F0380321B
:1012100041F080915F03803331F084E005C081E0CC
:1012200003C082E001C083E0109263031092850343
:10123000109262030895682F83E294E00C945002A8
:10124000CF92DF92EF92FF9280E394E00E94FF0240
:101250009B01AC0160933F04709340048093410470
:101260009093420460E070E08AE794E40E94C42313
:101270006B017C0120E030E0A9010E946C2418166B
:101280001CF4C701B60103C0C701B60190580E9403
:101290003D2460934B0470934C0480934D049093D1
:1012A0004E04FF90EF90DF90CF900895CF93DF939F
:1012B000EC0180912F0491E090936203809384036A
:1012C000109263031092850361E083E294E00E9430
:1012D00050028D2F90E00E941B09CE0199270E9499
:1012E0001B09DF91CF910C94BE089091610391117D
:1012F000FCCF91E090936103909360032FEF2093D4
:101300005F0310925E03260F20935D0390933C03CE
:1013100090913C03880F892B80933C0380913B0381
:10132000813061F410923B0380913C038093BB00B9
:101330008091BC0083FDF8CF85EC01C085EE8093E1
:10134000BC00809161038130E1F380915E038617D8
:1013500010F460915E03ADE3B3E02BE133E0F901FB
:101360008E2F821B861718F48D918193F9CF862FCB
:101370000895CF93DF9390912F0421E0209362038F
:10138000909384031092630310928503682F83E285
:1013900094E00E9450020E94BE0862E080912F04F7
:1013A0000E94750910921A038093190383E294E056
:1013B0000E940402D82F80E0C82F83E294E00E94AC
:1013C00004028C2B9D2BDF91CF9108958F929F92D9
:1013D000AF92BF92CF92DF92EF92FF9240913B0487
:1013E00050913C0460913D0470913E04809137041B
:1013F00090913804A0913904B0913A0448175907E4
:101400006A077B0709F46AC00E9415196B017C0109
:1014100040914B0450914C0460914D0470914E04E6
:1014200080914F0490915004A0915104B0915204C6
:10143000840F951FA61FB71F8C159D05AE05BF0510
:1014400008F04EC080903F0490904004A09041046A
:10145000B090420420E030E0A901C501B4010E942F
:101460006C24181664F48091370490913804A0918C
:101470003904B0913A040196A11DB11D14C020E0B9
:1014800030E0A901C501B4010E94922E87FF13C06C
:101490008091370490913804A0913904B0913A04B6
:1014A0000197A109B1098093370490933804A09360
:1014B0003904B0933A0480913704682F637080E355
:1014C00094E00E949B01C0924F04D0925004E0929D
:1014D0005104F09252040E94200902C080E001C031
:1014E00081E0FF90EF90DF90CF90BF90AF909F9002
:1014F0008F90089510921A031092190310926303AB
:10150000109285031092610381E080936003109232
:101510003B0361E082E10E946F1861E083E10E9479
:101520006F18E9EBF0E080818E7F808380818D7F72
:10153000808388E48093B80085E48093BC0008959C
:10154000CF93C62F9091940421E02093620390934F
:1015500084031092630310928503682F83E294E062
:101560000E9450026C2F83E294E00E945002CF91BF
:101570000C94BE08009769F0FC0101900020E9F787
:101580003197AF01481B590BBC0186E893E00C94DE
:10159000671280E090E00895FC01448155816081EC
:1015A000718186E893E00C946712CF93DF93FC017E
:1015B000C081D181209751F08881882339F0082E8D
:1015C000000C990B0E94C8268993F6CFDF91CF912A
:1015D0000895FC01248135816217730720F480810E
:1015E0009181009729F41092950485E994E008957B
:1015F000860F971F0895FB0144815581FC012481CA
:1016000035812417350778F080819181009759F052
:10161000FB01608171816115710529F00E94E92645
:1016200021E0892B09F020E0822F0895FC0124811C
:101630003581232B31F421E061157105A1F0FB0107
:1016400008C0FC01808191816115710531F421E0B0
:10165000FC018081882339F005C00E94D92621E051
:10166000892B09F020E0822F0895FC012481358127
:10167000FB01448155812417350721F5FC01808148
:101680009181FB0160817181009719F061157105ED
:10169000A1F46115710549F0232BB1F0FB018081A4
:1016A00090E09195819591090AC0009769F0232BEC
:1016B00059F0FC01808190E002C00E94D92621E00F
:1016C000892B19F020E001C021E0822F0895EF92CC
:1016D000FF920F931F93CF93DF93FC0124813581F9
:1016E0006115710511F480E019C041155105A9F08B
:1016F0007B01EC018A01020F131FB8010E949708B9
:10170000882389F3288139818C819D81B701820FDB
:10171000931F0E94E2261D830C8381E0DF91CF910D
:101720001F910F91FF90EF900895CF93DF9300D01A
:10173000CDB7DEB769831A8241E050E0BE016F5F2A
:101740007F4F0E94670B0F900F90DF91CF9108950C
:101750006115710551F0FB0101900020E9F7319707
:10176000AF01461B570B0C94670B80E008950F9355
:101770001F93CF93DF938C01EB01FC01808191815A
:101780000097B1F0688179816115710579F0428126
:1017900053812C813D814217530740F00E94E2267D
:1017A0008C819D81F8019583848313C00E946125FB
:1017B00088819981F801918380838A819B819383B9
:1017C00082838C819D8195838483198218821B82F8
:1017D0001A821D821C82DF91CF911F910F91089573
:1017E000CF93DF93EC018617970711F00E94B70B98
:1017F000CE01DF91CF910895CF93DF93EC018881E3
:101800009981009711F00E946125198218821D822A
:101810001C821B821A82DF91CF910895EF92FF9272
:101820000F931F93CF93DF93EC017B01611571053B
:10183000E1F0CB010E94EB2B0097D1F02C813D8190
:101840008C01020F131FB801CE010E949708882354
:1018500061F0288139818C819D81B701820F931FAE
:101860000E94E42B1D830C8303C0CE010E94FC0B5D
:10187000CE01DF91CF911F910F91FF90EF900895CE
:10188000EF92FF920F931F93CF93DF93EC018B01A5
:101890006115710551F0CB010E94EB2B7C01BC015D
:1018A000CE010E949708811104C0CE010E94FC0B5A
:1018B00007C0FD82EC82B801888199810E94E42BE7
:1018C000CE01DF91CF911F910F91FF90EF9008957E
:1018D000EF92FF920F931F93CF93DF93EC017B0165
:1018E0008A01BA010E949708811104C0CE010E94AA
:1018F000FC0B07C01D830C83B701888199810E946E
:10190000E226CE01DF91CF911F910F91FF90EF90D2
:101910000895CF93DF93EC016115710559F0FB0138
:1019200001900020E9F73197AF01461B570B0E9449
:10193000680C02C00E94FC0BCE01DF91CF9108958C
:10194000CF93DF93EC01FB018617970761F060816D
:1019500071816115710529F0448155810E94680CDF
:1019600002C00E94FC0BCE01DF91CF910895FC01D3
:10197000808191810C946125FC0111821082138277
:101980001282158214820C94400CFC011182108288
:1019900013821282158214820C94A00CFC01118215
:1019A000108213821282158214826115710551F022
:1019B000FB0101900020E9F73197AF01461B570B5F
:1019C0000C94680C0895BF92CF92DF92EF92FF9231
:1019D0000F931F93CF93DF937C016B018A01E90181
:1019E0002417350720F4812F8901C42FD82F6BECE1
:1019F00071E0C7010E94CE0CD60114968D919C9186
:101A0000159708171907D0F48C179D0708F4EC01F7
:101A1000D601ED91FC911197EC0FFD1FB080108263
:101A20004D915C91BA01600F711FC7010E94890C32
:101A3000D601ED91FC91EC0FFD1FB082C701DF9143
:101A4000CF911F910F91FF90EF90DF90CF90BF90BB
:101A5000089508950895EF92FF920F931F93CF93E7
:101A6000DF93CDB7DEB762970FB6F894DEBF0FBE37
:101A7000CDBF8C01CA017901F80111821082138255
:101A800012821582148240E1BE016F5F7F4F0E9477
:101A9000F42BBE016F5F7F4FC8010E94890CC80103
:101AA0000E94D50AF801848195818E159F0500F565
:101AB00066E972E0CE0101960E94CE0CF8014481E5
:101AC000558160817181CE0101960E94670B811161
:101AD00004C0CE0101960E94FC0BBE016F5F7F4FD8
:101AE000C8010E94A00CCE0101960E94B70CDACF6B
:101AF000C80162960FB6F894DEBF0FBECDBFDF916E
:101B0000CF911F910F91FF90EF900895CB010E940C
:101B1000CC0A86E893E00C943213DF92EF92FF92A6
:101B20000F931F93CF93DF93EC017C0182E0E80ECB
:101B3000F11C6BEC71E0C7010E94890C01E08FE1A0
:101B4000D82E86E893E00E94B41218161906F4F510
:101B500086E893E00E94921210919704112371F18C
:101B600090919604FE01E90FF11D833251F08087B8
:101B70009F5F903218F490939604E3CFD09296042E
:101B8000E0CF10861092970410929604BE01685F11
:101B90007F4FC7010E94890CC7010E94D50A61E0EE
:101BA00083E00E946F1865E070E080E090E00E94A2
:101BB000DB1860E083E00E946F1809C08A3309F6E1
:101BC00000939704888700939604BBCF10E0812F81
:101BD000DF91CF911F910F91FF90EF90DF900895CB
:101BE000CF93DF93EC01FB01248135810E94E30C4C
:101BF000CE01DF91CF9108954F925F926F927F92C5
:101C00008F929F92AF92BF92EF92FF920F931F938A
:101C1000CF93DF93CDB7DEB766970FB6F894DEBFEC
:101C20000FBECDBF7C015B016BEC71E00E94CE0C5E
:101C300085010E5F1F4F6AED71E0C8010E94160B0F
:101C40008823A9F0409137045091380424E030E013
:101C5000B501CE0107960E942B0DBE01695F7F4F33
:101C6000CE0101960E94C50C68E670E055C06EED8D
:101C700071E0C8010E94160B882361F140913B047A
:101C800050913C0424E030E0B501CE0107960E945B
:101C90002B0DBE01695F7F4FCE0101960E94C50CDE
:101CA0006AE670E0CE0101960E940E0CBC01CE01E6
:101CB00007960E94A00CCE0101960E94B70CBE01AF
:101CC000695F7F4FC7010E94F00BCE0107960E940B
:101CD000B70CE6C362EE71E0C8010E94160B8823C0
:101CE000A9F1609100017091010180910201909130
:101CF00003010E94362422E030E0AB01B501CE01A1
:101D000007960E942B0DBE01695F7F4FCE010196A1
:101D10000E94C50C6CE670E0CE0101960E940E0C8C
:101D2000BC01CE010D960E94C50CCE0101960E9409
:101D3000B70CCE0107960E94B70CBE01635F7F4FC0
:101D4000C7010E94F00BCE010D96C1CF66EE71E087
:101D5000C8010E94160B882309F440C040903F043C
:101D600050904004609041047090420445018BE221
:101D7000880E911C00E010E0F40120813181428145
:101D80005381C301B2010E9457239F7720E030E0C6
:101D900040EA50E40E94922E87FF0BC087E0809FAC
:101DA000B001819F700D1124685D7F4F6A0D7B1D0E
:101DB0000AC00F5F1F4FF7E08F0E911C0530110511
:101DC000D9F66CEC71E0CE0101960E94CE0C60EF6A
:101DD00071E0CE0101960E94A80BD8C26AEE71E0B4
:101DE000C8010E94160B882381F06EEE71E0CE01CF
:101DF00001960E94CE0C80910401909105010297FA
:101E000009F0C4C26EE670E041C362EF71E0C80140
:101E10000E94160B8823E9F066E770E0CE01019678
:101E20000E94BC0C40913B0450913C0460913D04E5
:101E300070913E048091370490913804A091390448
:101E4000B0913A04481759076A077B0709F41CC385
:101E50009DC266EF71E0C8010E94160B882309F449
:101E600046C08CE00E941216892BD9F420E030E0A5
:101E700040E251E460910F017091100180911101D5
:101E8000909112010E94582320E030EC4FE754E477
:101E90000E94F82E20E030E048E452E40E94C4237F
:101EA00012C060910F017091100180911101909109
:101EB00012019B01AC010E94582320E030E040E079
:101EC0005FE30E9458230E94362424E030E0AB01F7
:101ED000B501CE0107960E942B0DBE01695F7F4FB1
:101EE000CE0101960E94C50C6AE770E015CF6AEF3B
:101EF00071E0C8010E94160B8823E1F06EEF71E0DB
:101F0000C7010E94890CB701CE0101960E94C50C41
:101F100041E050E060EF71E0CE0101960E94670B56
:101F2000882309F4B8C2BE016F5F7F4FC7010E94CA
:101F3000A00C32C261E072E0CE0101960E94CE0C8C
:101F4000BE016F5F7F4FC8010E94FB0A982ECE0131
:101F500001960E94B70C992009F456C043E050E066
:101F6000B801CE0107960E94F00DBE01695F7F4F58
:101F7000CE0101960E94C50C40E150E060E070E0A7
:101F800089819A810E94C92A4B015C01AA24BB2441
:101F9000CE0101960E94B70C81149104A104B104F2
:101FA00021F4812C912C5401839440910A01509189
:101FB0000B0160910C0170910D01D501C401481510
:101FC00059056A057B0514F4DB01CA0180933704C7
:101FD00090933804A0933904B0933A048093060197
:101FE00090930701A0930801B09309018D879E8704
:101FF000AF87B88BBE01635F7F4F80E090E00E94A7
:1020000071066CE770E050C065E072E0CE010196A9
:102010000E94CE0CBE016F5F7F4FC8010E94FB0A79
:10202000982ECE0101960E94B70C992009F445C064
:1020300043E050E0B801CE0107960E94F00DBE01CA
:10204000695F7F4FCE0101960E94C50C40E150E0D0
:1020500060E070E089819A810E94C92A4B015C018D
:10206000AA24BB24CE0101960E94B70C81149104CE
:10207000A104B10421F4812C912C5401839400918A
:102080000A0110910B0120910C0130910D01C50145
:10209000B401081519052A053B0514F4C901B80156
:1020A0000E94CD076DE770E0CE0101960E94BC0C46
:1020B000CE0107960E94B70C69C169E072E0C801C1
:1020C0000E94160B882349F081E090E0909305016F
:1020D000809304016EE770E055C16DE072E0C801C5
:1020E0000E94160B882349F082E090E0909305014E
:1020F000809304016FE770E045C161E172E0CE01B9
:1021000001960E94CE0CBE016F5F7F4FC8010E94F6
:10211000FB0A982ECE0101960E94B70C992009F473
:1021200068C025E030E043E050E0B801CE010796FA
:102130000E94E30CBE01695F7F4FCE0101960E94B1
:10214000C50C9501285D3F4F49815A8180E090E0A0
:102150002417350771F427E0289FB001299F700DDF
:102160001124F501E60FF71F23A534A545A556A5B3
:102170000AC00196295F3F4F8530910549F720E05D
:1021800030E048EC52E4CE0101962B8B3C8B4D8B1A
:102190005E8B0E94B70C2B893C894D895E89209308
:1021A0003F0430934004409341045093420460E064
:1021B00070E08AE794E40E94C4234B015C0120E0B4
:1021C00030E0A9010E946C2418161CF4C501B4016A
:1021D00003C0C501B40190580E943D2460934B0494
:1021E00070934C0480934D0490934E0460E870E02B
:1021F0005BCF65E172E0C8010E94160B882329F0CD
:102200000E94940767E870E0BDC069E172E0C80110
:102210000E94160B882329F00E94390766E870E0B7
:10222000B1C06DE172E0C8010E94160B882319F05D
:1022300065E870E0A7C060E272E0C8010E94160B7A
:10224000882321F01092A40460E00BC063E272E0E6
:10225000C8010E94160B882351F081E08093A404EA
:1022600061E083E00E946F1861E870E08BC066E275
:1022700072E0CE0101960E94CE0CBE016F5F7F4FCF
:10228000C8010E94FB0A982ECE0101960E94B70C4D
:10229000992081F025E030E043E050E0B801CE0124
:1022A00001960E94E30CCE0101960E94B70C62E8F1
:1022B00070E068C06AE272E0CE0101960E94CE0C26
:1022C000BE016F5F7F4FC8010E94FB0A982ECE01AE
:1022D00001960E94B70C992009F461C025E030E016
:1022E00043E050E0B801CE0107960E94E30C8B85D5
:1022F0009C85029749F560E070E0CE0107960E9448
:10230000E90AFC01808184FF1FC06EE272E0CE0109
:1023100001960E94CE0C4B855C856F817885CE013D
:1023200001960E94670B811104C0CE0101960E94A4
:10233000FC0BBE016F5F7F4FCE0107960E94A00C81
:10234000CE0101960E94B70C40E150E060E070E0E1
:102350008F8198850E94B8294B015C01CE010796B8
:102360000E94B70CB401990C880B990B0E94992E0E
:102370006093000170930101809302019093030127
:1023800063E870E0CE0101960E94BC0CBE016F5F55
:102390007F4FC7010E94F00BCE01019698CC61E3FC
:1023A00072E0C8010E94160B882309F463C064E838
:1023B00070E0C7010E94400C8BEC91E00E94561E19
:1023C00085E392E00E94BA0A609137047091380464
:1023D0008091390490913A040E94641E8FE392E048
:1023E0000E94BA0A6091060170910701809108016C
:1023F000909109010E94641E8CE492E00E94BA0A46
:1024000080910E01811103C084ED91E002C08FEC38
:1024100091E00E94561E80E692E00E94BA0A609106
:102420000A0170910B0180910C0190910D010E94A5
:10243000641E8AE692E00E94BA0A40913B045091E1
:102440003C0460913D0470913E048091370490916A
:102450003804A0913904B0913A04481759076A0723
:102460007B0719F08FEC91E002C084ED91E00E94AF
:10247000561E16C0F50186819781892B89F085E06B
:1024800090E00E94B7060CC062E770E0CE010196B2
:102490000E94400C7BCFCE0101960E94FC0B43CDE5
:1024A000C70166960FB6F894DEBF0FBECDBFDF91B1
:1024B000CF911F910F91FF90EF90BF90AF909F90A1
:1024C0008F907F906F905F904F9008950895CF9276
:1024D000DF92EF92FF920F931F93CF93DF936C01E4
:1024E0007A018B01C0E0D0E0CE15DF0589F0D8017C
:1024F0006D918D01D601ED91FC910190F081E02D5F
:10250000C6010995892B11F47E0102C02196ECCFFA
:10251000C701DF91CF911F910F91FF90EF90DF9056
:10252000CF900895FC01918D828D981761F0828D76
:10253000DF01A80FB11D5D968C91928D9F5F9F73F7
:10254000928F90E008958FEF9FEF0895FC01918D99
:10255000828D981731F0828DE80FF11D858D90E006
:1025600008958FEF9FEF0895FC01918D228D892FA3
:1025700090E0805C9F4F821B91098F73992708958B
:1025800086E893E00E94B41221E0892B09F420E050
:10259000822F0895FC01848DDF01A80FB11DA35A7D
:1025A000BF4F2C91848D90E001968F739927848F73
:1025B000A689B7892C93A089B1898C9180648C936A
:1025C000938D848D981306C00288F389E02D808155
:1025D0008F7D80830895EF92FF920F931F93CF9387
:1025E000DF93EC0181E0888F9B8D8C8D981305C063
:1025F000E889F989808185FD24C0F62E0B8D10E0D5
:102600000F5F1F4F0F731127E02E8C8DE8120CC047
:102610000FB607FCFACFE889F989808185FFF5CFED
:10262000CE010E94CA12F1CF8B8DFE01E80FF11D81
:10263000E35AFF4FF0820B8FEA89FB898081806229
:1026400007C0EE89FF896083E889F9898081806409
:10265000808381E090E0DF91CF911F910F91FF90F7
:10266000EF900895CF93DF93EC01888D8823C9F014
:10267000EA89FB89808185FD05C0A889B9898C918B
:1026800086FD0FC00FB607FCF5CF808185FFF2CF26
:10269000A889B9898C9185FFEDCFCE010E94CA121D
:1026A000E7CFDF91CF91089580E090E0892B29F06A
:1026B0000E94C01281110C94000008950E94C3264C
:1026C0001F920F920FB60F9211242F933F934F93A7
:1026D0005F936F937F938F939F93AF93BF93EF938A
:1026E000FF9386E893E00E94CA12FF91EF91BF9199
:1026F000AF919F918F917F916F915F914F913F919A
:102700002F910F900FBE0F901F9018951F920F9250
:102710000FB60F9211242F938F939F93EF93FF93F4
:10272000E0919603F09197038081E0919C03F091F2
:102730009D0382FD12C0908180919F038F5F8F73F4
:102740002091A003821751F0E0919F03F0E0EA5737
:10275000FC4F958F80939F0301C08081FF91EF9183
:102760009F918F912F910F900FBE0F901F901895F2
:10277000833081F028F4813099F08230A1F00895FF
:102780008730A9F08830B9F08430D1F4809180008E
:102790008F7D03C0809180008F77809380000895A3
:1027A00084B58F7702C084B58F7D84BD08958091F4
:1027B000B0008F7703C08091B0008F7D8093B00010
:1027C00008953FB7F8948091B1049091B204A0911C
:1027D000B304B091B40426B5A89B05C02F3F19F0EF
:1027E0000196A11DB11D3FBFBA2FA92F982F882791
:1027F000820F911DA11DB11DBC01CD0142E0660FEC
:10280000771F881F991F4A95D1F70895FC0114A2DC
:1028100015A216A217A20895CF93DF9300D000D07F
:1028200000D0CDB7DEB78091AA049091AB04019699
:102830008B3091052CF49093AB048093AA0431C0A3
:102840001092AB041092AA046BEC71E0CE010196D9
:102850000E94CE0C80913B0490913C04A0913D04D9
:10286000B0913E044091370450913804609139048E
:1028700070913A04841B950BA60BB70BB7FF03C0EE
:1028800064EF71E006C0892B8A2B8B2B31F068E254
:1028900072E0CE0101960E94890CCE0101960E9441
:1028A000B70C26960FB6F894DEBF0FBECDBFDF91F2
:1028B000CF910895EF92FF920F931F93CF93DF93E1
:1028C000CDB7DEB72C970FB6F894DEBF0FBECDBFE5
:1028D0008C016BEC71E00E94CE0CE0E3F4E08285A9
:1028E0008F9381858F9380858F9387818F9380E8E5
:1028F00092E09F938F93CE0101967C019F938F93DB
:102900000E94F726B701C8010E94890C0FB6F894FF
:10291000DEBF0FBECDBFC8012C960FB6F894DEBF48
:102920000FBECDBFDF91CF911F910F91FF90EF9020
:102930000895EF92FF920F931F93CF93DF93CDB73C
:10294000DEB72C970FB6F894DEBF0FBECDBF8C015B
:10295000BC01CE0101960E945A14D801ED91FC9160
:10296000E680F780BE016F5F7F4FCE0107960E9421
:10297000C50CBE01695F7F4FC801F7010995CE0103
:1029800007960E94B70CCE0101960E94B70C2C96B8
:102990000FB6F894DEBF0FBECDBFDF91CF911F9170
:1029A0000F91FF90EF9008954F925F926F927F92F8
:1029B0008F929F92AF92BF92CF92DF92EF92FF924F
:1029C0000F931F93CF93DF9300D000D000D0CDB7EB
:1029D000DEB78C015B0182E0A80EB11C43E050E041
:1029E000B501CE0101960E94F00D4AE050E060E092
:1029F00070E089819A810E94B8292B013C01CE01A7
:102A000001960E94B70CC0903704D0903804E09033
:102A10003904F0903A0461E070E0C5010E94E90ACF
:102A2000FC018081893469F4C701B6016419750914
:102A30008609970997FF1AC061E070E080E090E096
:102A400015C080900A0190900B01A0900C01B090ED
:102A50000D01C701B601640D751D861D971D8616F3
:102A60009706A806B90614F4C501B4010E94CD0763
:102A70000E94940762EA70E0C8010E94BC0CC80181
:102A800026960FB6F894DEBF0FBECDBFDF91CF9173
:102A90001F910F91FF90EF90DF90CF90BF90AF907C
:102AA0009F908F907F906F905F904F900895CF92FE
:102AB000DF92EF92FF920F931F93CF93DF9300D09B
:102AC00000D000D0CDB7DEB77B01CE0101960E94C9
:102AD000C50C00E010E0C12CD12C8D819E8108171F
:102AE000190770F4B801CE0101960E94E90AFC01B1
:102AF0008081C80ED11C87FDDA940F5F1F4FEDCF88
:102B0000CE0101960E94B70C6C2DC7010E94950B57
:102B1000C7010E94CC0A86E893E00E9432132696F1
:102B20000FB6F894DEBF0FBECDBFDF91CF911F91DE
:102B30000F91FF90EF90DF90CF900895BF92CF92CA
:102B4000DF92EF92FF920F931F93CF93DF93EC01ED
:102B50007C0182E0E80EF11C6BEC71E0C7010E9481
:102B6000890CBB24B394CC24C394D12C86E893E085
:102B70000E94B412181619060CF048C086E893E0BB
:102B80000E949212082F082E000C990B0E94C82652
:102B90001091A9048634910559F4111109C0B0921D
:102BA000A9040887D092A804C092A7041986DECF92
:102BB0001123E1F22091A7043091A80429303105B6
:102BC00054F4FE01E20FF31F00872F5F3F4F309355
:102BD000A8042093A7048091A7049091A8048930A9
:102BE000910524F2FE01E80FF91F1782BE01685F0C
:102BF0007F4FC7010E94890CC7010E94D50A10921D
:102C0000A8041092A7041092A90401C010E0812F1B
:102C1000DF91CF911F910F91FF90EF90DF90CF90B8
:102C2000BF900895CF93DF93282F30E0F901E7514B
:102C3000FF4F8491F901EB52FF4FD491F901EF530B
:102C4000FF4FC491CC2391F081110E94B813EC2F57
:102C5000F0E0EE0FFF1FE954FF4FA591B491EC9106
:102C6000ED2381E090E021F480E002C080E090E07C
:102C7000DF91CF9108958F929F92AF92BF92CF92A2
:102C8000DF92EF92FF920F931F93CF93DF93CDB715
:102C9000DEB762970FB6F894DEBF0FBECDBF7C01E2
:102CA0006B016BEC71E00E94CE0C86010E5F1F4F32
:102CB00061E070E0C8010E94E90ADC018C91873470
:102CC00009F047C06FE870E0CE010D960E94BC0C81
:102CD00043E050E0B801CE0101960E94F00D4AE0B9
:102CE00050E060E070E089819A810E94B8294B0130
:102CF0005C01CE0101960E94B70C00910A0110916F
:102D00000B0120910C0130910D01B401C501061792
:102D100017072807390714F4C901B80161157105AF
:102D20008105910529F00E94CD070E949407D8C023
:102D3000B601CE0101960E945A14BE016F5F7F4F0B
:102D4000CE010D960E94F00BCE0101960E94B70CA9
:102D5000C7C061E070E0C8010E94E90AFC018081FF
:102D6000833509F045C043E050E0B801CE0101963B
:102D70000E94F00D4AE050E060E070E089819A81A5
:102D80000E94B8294B015C01CE0101960E94B70C4C
:102D9000181419041A041B04DCF48092370490926E
:102DA0003804A0923904B0923A04809206019092BD
:102DB0000701A0920801B09209018D869E86AF8618
:102DC000B88ABE01635F7F4F80E090E00E94710689
:102DD000B601CE0101960E945A14BE016F5F7F4F6B
:102DE000C7010E94F00BCE0101960E94B70C63C18F
:102DF00061E070E0C8010E94E90ADC018C9189342D
:102E000049F061E070E0C8010E94E90AFC0180819C
:102E10008F3431F4B601CE0101960E94D414DDCF77
:102E200061E070E0C8010E94E90ADC018C918C34F9
:102E300009F05FC06BEC71E0CE010D960E94CE0CE4
:102E400043E050E0B801FE0131966F01CF010E94CE
:102E5000F00D4AE050E060E070E089819A810E94C4
:102E6000B8294B015C01C6010E94B70C1814190463
:102E70001A041B04BCF480920A0190920B01A092E8
:102E80000C01B0920D0189829A82AB82BC82B6019C
:102E900084E090E00E947106B801CE010D960E9478
:102EA000A00C1EC080910D018F9380910C018F9317
:102EB00080910B018F9380910A018F9387E892E0B4
:102EC0009F938F93DF92CF920E94F726B601CE0197
:102ED0000D960E94890C0FB6F894DEBF0FBECDBFD1
:102EE000BE01635F7F4FC7010E94F00BCE010D96BC
:102EF0007CCF61E070E0C8010E94E90ADC018C919E
:102F00008035C9F56FE872E0CE0101960E94CE0CC3
:102F1000B8E2CB0ED11C84E0A82EB12C9924939456
:102F2000B501C8010E94E90AFC018081813311F4D6
:102F3000D6011C92B501C8010E94E90AFC018081FA
:102F4000823311F4D6019C92B501CE0101960E9404
:102F5000E90AFC01D6018D916D01811102C091E356
:102F600001C092E39083BFEFAB1ABB0AE8E0AE1654
:102F7000B104B1F632CF61E070E0C8010E94E90A05
:102F8000DC018C91823419F469E970E087C061E05A
:102F900070E0C8010E94E90AFC018081833439F4A1
:102FA00068E972E0CE0101960E94CE0C16CF61E076
:102FB00070E0C8010E94E90ADC018C91843509F0B7
:102FC00060C08CE00E941216892BE1F460910F0121
:102FD0007091100180911101909112010E9436248C
:102FE0009B01AC012C5E3F4F4F4F5F4FAFEFB3E003
:102FF0000E941D3026E430E040E050E00E94FE2FA9
:10300000CA011BC020E030E040E05FE360910F01A7
:103010007091100180911101909112010E9458232A
:1030200026E636EA48E853E40E9458239B01AC01A7
:103030000E9458230E9436249B019F938F933F93B5
:103040002F9381EA92E09F938F938E010F5F1F4F22
:103050001F930F930E94F726B801CE010D960E9490
:10306000CE0CBE01635F7F4FC7010E94F00BCE0103
:103070000D960E94B70C0FB6F894DEBF0FBECDBF01
:103080001AC061E070E0C8010E94E90ADC018C917D
:10309000863541F40E94390760E970E0C7010E945B
:1030A000400C09C0F60186819781892B21F085E0CB
:1030B00090E00E94B706C70162960FB6F894DEBF93
:1030C0000FBECDBFDF91CF911F910F91FF90EF9079
:1030D000DF90CF90BF90AF909F908F9008951F93F7
:1030E000CF93DF93282F30E0F901E751FF4F849110
:1030F000F901EB52FF4FD491F901EF53FF4FC49107
:10310000CC23C9F0162F81110E94B813EC2FF0E0E8
:10311000EE0FFF1FE355FF4FA591B4918FB7F894C1
:10312000111105C09C91ED2FE095E92302C0EC91AF
:10313000ED2BEC938FBFDF91CF911F910895CF932B
:10314000DF9390E0FC01EB52FF4F2491FC01EF5321
:10315000FF4F8491882361F190E0880F991FFC0153
:10316000ED55FF4FC591D491FC01E355FF4FA5915B
:10317000B491611109C09FB7F8948881209582238A
:103180008883EC912E230BC0623061F49FB7F894D2
:103190003881822F809583238883EC912E2B2C936A
:1031A0009FBF06C08FB7F894E8812E2B28838FBF6E
:1031B000DF91CF9108958F929F92AF92BF92CF925D
:1031C000DF92EF92FF926B017C010E94E1134B01B1
:1031D0005C01C114D104E104F104F1F00E94E11397
:1031E000DC01CB0188199909AA09BB09883E9340E3
:1031F000A105B10570F321E0C21AD108E108F10878
:1032000088EE880E83E0981EA11CB11CC114D10465
:10321000E104F10419F7DDCFFF90EF90DF90CF903C
:10322000BF90AF909F908F9008952FB7F8946091C2
:10323000AD047091AE048091AF049091B0042FBFA3
:1032400008951F920F920FB60F9211242F933F9360
:103250008F939F93AF93BF938091AD049091AE04F1
:10326000A091AF04B091B0043091AC0423E0230FDF
:103270002D3720F40196A11DB11D05C026E8230FAE
:103280000296A11DB11D2093AC048093AD049093D0
:10329000AE04A093AF04B093B0048091B1049091B8
:1032A000B204A091B304B091B4040196A11DB11D64
:1032B0008093B1049093B204A093B304B093B40488
:1032C000BF91AF919F918F913F912F910F900FBE22
:1032D0000F901F901895CF92DF92EF92FF920F936D
:1032E0001F93CF93DF93EC01F42E4AE050E060E0AF
:1032F00070E0F901808191810E94B8290091060156
:10330000109107012091080130910901FF2099F0E7
:1033100068017901C61AD70AE80AF90AD701C60175
:10332000F7FE19C0109206011092070110920801D1
:103330001092090118C0DC01CB01800F911FA21F60
:10334000B31F803127E29207A105B10524F08FE079
:1033500097E2A0E0B0E08093060190930701A0936C
:103360000801B093090160910601709107018091F5
:103370000801909109010E94CD070E94940781E005
:103380000E94DC06882339F061E070E080E090E084
:103390000E94DB18F4CF68E870E0CE010E94BC0CFC
:1033A000CE01DF91CF911F910F91FF90EF90DF90B1
:1033B000CF900895089508959F92AF92BF92CF92B3
:1033C000DF92EF92FF920F931F93CF93DF93CDB7CE
:1033D000DEB766970FB6F894DEBF0FBECDBF6C01A7
:1033E0005B016BEC71E00E94CE0C63EB71E0CE01EF
:1033F00001967C010E94BC0C85010E5F1F4FB70136
:10340000C8010E94350B982EC7010E94B70C992065
:1034100019F061EB71E0EDC06AEA71E0C7010E944A
:10342000BC0CB701C8010E94350B982EC7010E9441
:10343000B70C992031F061EB72E0C6010E94890C53
:10344000B5C263EA71E0C7010E94BC0CB701C801B4
:103450000E94350B982EC7010E94B70C9110EBCF3C
:1034600060EA71E0C7010E94BC0CB701C8010E946C
:10347000FB0A982EC7010E94B70C992049F042E040
:1034800050E0B801C7010E94F00D970141E017C05C
:103490006DE971E0C7010E94BC0CB701C8010E9430
:1034A000FB0A982EC7010E94B70C992071F042E0E8
:1034B00050E0B801C7010E94F00D970140E0B5014E
:1034C000CE010B960E946B1983C166E971E0C701BA
:1034D0000E94BC0CB701C8010E94350B982EC70191
:1034E0000E94B70C992049F180913A048F93809102
:1034F00039048F93809138048F93809137048F9390
:1035000080EC92E09F938F93FF92EF920E94F726B8
:10351000B701CE010B960E94CE0CBE01655F7F4FB6
:10352000C6010E94F00BCE010B960E94B70C0FB69D
:10353000F894DEBF0FBECDBF39C26FE871E0C7019E
:103540000E94BC0CB701C8010E94350B982EC70120
:103550000E94B70C9920E1F12DEC3CEC4CE45DE3CA
:1035600060910F01709110018091110190911201F1
:103570000E945823870121E044E00E94982920E01E
:1035800030E0A90160910F0170911001809111014B
:10359000909112010E94922E87FF02C01DE201C08D
:1035A0001BE267EC72E0CE010B960E94CE0C612FFD
:1035B000CE010B960E94950BB701CE010B960E948F
:1035C000A80BBE01655F7F4FC6010E94F00B52C180
:1035D00068E871E0C7010E94BC0CB701C8010E94F5
:1035E000350B982EC7010E94B70C992031F061E885
:1035F00071E0C6010E94400CD9C16DE771E0C701BE
:103600000E94BC0CB701C8010E94FB0A982EC7019A
:103610000E94B70C992051F043E050E0B801CE0170
:103620000B960E94F00D6BE771E018C067E771E040
:10363000C7010E94BC0CB701C8010E94FB0A982E6A
:10364000C7010E94B70C992009F143E050E0B8018E
:10365000CE010B960E94F00D65E771E0C7010E9454
:10366000BC0C4AE050E060E070E08B859C850E94D5
:10367000B8290E94992E60930001709301018093F4
:103680000201909303016DEF70E0E3C06EE671E01C
:10369000C7010E94BC0CB701C8010E94350B982ECF
:1036A000C7010E94B70C992019F06AE671E0A1CF1A
:1036B00063E671E0C7010E94BC0CB701C8010E941B
:1036C000350B982EC7010E94B70C992019F06EE5B2
:1036D00071E08FCF67E571E0CE010B960E94BC0CC4
:1036E000BE01655F7F4FC8010E94350B811112C07A
:1036F00060E571E0C7010E94BC0CB701C8010E94DF
:10370000350B99249394811101C0912CC7010E941B
:10371000B70C02C099249394CE010B960E94B70C6B
:10372000992019F06BE471E064CF64E471E0C701A3
:103730000E94BC0CB701C8010E94350B982EC7012E
:103740000E94B70C992019F062E471E011C06BE39C
:1037500071E0C7010E94BC0CB701C8010E94350B83
:10376000982EC7010E94B70C992061F069E371E0BF
:10377000C7010E94BC0CA701B501CE010B960E94A7
:10378000F82226C063E371E0C7010E94BC0CB701B8
:10379000C8010E94FB0A982EC7010E94B70C99200D
:1037A00011F145E050E0B801C7010E94F00D66E953
:1037B00072E0C7010E94160B882321F08AE090E096
:1037C0000E94B70662E071E0CE010B960E94BC0C2D
:1037D000BE01655F7F4FC6010E94F00BCE010B96C4
:1037E0000E94B70CD6C06FE271E0C7010E94BC0C0A
:1037F000B701C8010E94FB0A982EC7010E94B70CAE
:10380000992051F043E050E0B801CE010B960E94A0
:10381000F00D6DE271E018C064E271E0C7010E9432
:10382000BC0CB701C8010E94FB0A982EC7010E9478
:10383000B70C992011F143E050E0B801CE010B968E
:103840000E94F00D62E271E0C7010E94BC0C68E2C8
:1038500071E0CE0141960E94BC0CBE016F5E7F4FAD
:10386000C6010E94F00BCE0141960E94B70CC70121
:103870000E94B70CCE010B968DC06BE171E0C701C1
:103880000E94BC0CB701C8010E94350B982EC701DD
:103890000E94B70C992019F067E171E0AACE6AEC9A
:1038A00072E0C8010E94160B882319F062E171E0F2
:1038B000A0CE6FE071E0C7010E94BC0CB701C80147
:1038C0000E94FB0A982EC7010E94B70C992051F163
:1038D00065E070E0C8010E94E90AFC0110816BEC10
:1038E00071E0C7010E94CE0C612FC7010E94950BA9
:1038F00068EC72E0C7010E94A80B60910001709112
:10390000010180910201909103010E94362497FFEA
:1039100003C060ED72E002C066E972E0C7010E9478
:10392000A80B33C06BE071E0C7010E94BC0CB7016B
:10393000C8010E94FB0A982EC7010E94B70C99206B
:1039400049F065E070E0C8010E94E90AFC012081AD
:1039500041E417C067E071E0C7010E94BC0CB701E9
:10396000C8010E94FB0A982EC7010E94B70C99203B
:10397000A1F065E070E0C8010E94E90AFC01208125
:1039800042E4B501C7010E94BB22B701C6010E94F3
:10399000F00BC7010E94B70C09C0F5018681978121
:1039A000892B21F085E090E00E94B706C60166965B
:1039B0000FB6F894DEBF0FBECDBFDF91CF911F9140
:1039C0000F91FF90EF90DF90CF90BF90AF909F90BE
:1039D0000895CB010E94CC0A89EC91E00E94BA0ABA
:1039E00086E893E00C943213BF92CF92DF92EF926D
:1039F000FF920F931F93CF93DF93EC018C010E5F27
:103A00001F4F6BEC71E0C8010E94890CCE01089633
:103A10007C01BB24B394CC24C394D12C86E893E0DE
:103A20000E94B412181619060CF044C086E893E000
:103A30000E9492129091B70491110BC0863471F7D5
:103A4000B092B7048887D092B604C092B5041986A4
:103A5000E5CF2091B5043091B604FE01E20FF31FCB
:103A600080872F5F3F4F3093B6042093B504FE014B
:103A7000E20FF31F10862630310539F06AEC72E050
:103A8000C7010E94D926892B49F6B701C8010E94B7
:103A9000890CC8010E94D50A1092B6041092B50490
:103AA0001092B70461E087E00E946F1860E087E041
:103AB0000E946F18DF91CF911F910F91FF90EF90AF
:103AC000DF90CF90BF9008951092890310928803E1
:103AD00088EE93E0A0E0B0E080938A0390938B039C
:103AE000A0938C03B0938D032AE331E030938703D6
:103AF0002093860325EC30E03093930320939203C8
:103B000024EC30E0309395032093940320EC30E0D4
:103B1000309397032093960321EC30E03093990380
:103B20002093980322EC30E030939B0320939A0378
:103B300026EC30E030939D0320939C0310929F036A
:103B40001092A0031092A1031092A20310922604D7
:103B5000109225048093270490932804A0932904AD
:103B6000B0932A048AE491E0909324048093230480
:103B7000EEE5F4E01282118213821082DF011197C8
:103B80001C9211971C92369684E0E637F80791F75D
:103B90001092800410928304109290041092930467
:103BA00010928F0410928E0480E6809359048093C3
:103BB000940480E19EE090937F0480937E0489E5E5
:103BC00094E0909382048093810488E08093780449
:103BD0008DE080937B048AE08093790489E0809370
:103BE0007A048BE080937C048CE080937D0484E7EE
:103BF00094E090935804809357048AE591E0909361
:103C000031048093300410923204109237041092E1
:103C100038041092390410923A0410923B04109226
:103C20003C0410923D0410923E0410923F04109206
:103C30004004109241041092420480E090E0A0E819
:103C4000BFE38093430490934404A0934504B0934E
:103C500046048093470490934804A0934904B0938A
:103C60004A0410924B0410924C0410924D0410928E
:103C70004E0410924F04109250041092510410926E
:103C800052041092330410923404109235041092AE
:103C900036048AE395E0909354048093530481E3BF
:103CA00095E090935604809355040895CF93DF9345
:103CB0000E94BA0AEC0189EC91E00E94BA0A8C0FCA
:103CC0009D1FDF91CF9108958F929F92AF92BF92E7
:103CD000CF92DF92EF92FF920F931F93CF93DF93D8
:103CE000CDB7DEB7A1970FB6F894DEBF0FBECDBF3C
:103CF0006B017C0197FF31C0E0918603F09187034F
:103D00000190F081E02D6DE286E893E009958C0149
:103D100022273327A9012C193D094E095F0919A251
:103D2000CE0181967C019AE0892E912CA12CB12C98
:103D3000CA01B901A50194010E94DC2F605DF70161
:103D400062937F01211531054105510589F7CF01A6
:103D50000E94BA0A080F191F1EC09B01AC0119A2CC
:103D60008E010F5D1F4F8AE0C82ED12CE12CF12C63
:103D7000CA01B901A70196010E94DC2F605DF8011C
:103D800062938F01211531054105510589F7CF0156
:103D90000E94BA0A8C0189EC91E00E94BA0A800F55
:103DA000911FA1960FB6F894DEBF0FBECDBFDF9175
:103DB000CF911F910F91FF90EF90DF90CF90BF9028
:103DC000AF909F908F900895CF93DF93CDB7DEB7DC
:103DD0006C970FB6F894DEBF0FBECDBF789484B554
:103DE000826084BD84B5816084BD85B5826085BDF7
:103DF00085B5816085BD80916E00816080936E0085
:103E00001092810080918100826080938100809176
:103E10008100816080938100809180008160809327
:103E200080008091B10084608093B1008091B000E7
:103E300081608093B00080917A00846080937A00E2
:103E400080917A00826080937A0080917A0081600C
:103E500080937A0080917A00806880937A00109233
:103E6000C10062E085E00E949F1862E084E00E9449
:103E70009F1862E08CE00E949F18E0919603F091F9
:103E8000970382E08083E0919203F0919303108284
:103E9000E0919403F09195038FEC808310929E0340
:103EA000E0919A03F0919B0386E08083E091980370
:103EB000F0919903808180618083E0919803F09173
:103EC0009903808188608083E0919803F091990341
:103ED000808180688083E0919803F09199038081CC
:103EE0008F7D808361E087E00E949F1861E086E01B
:103EF0000E949F1860E087E00E946F1860E086E0F3
:103F00000E946F1861E083E00E949F180E947A0A65
:103F10000E947A0A60E080E00E94A00A80E496E0B5
:103F200090935B0480935A048091940491E0909361
:103F3000620380938403109263031092850360E010
:103F400083E294E00E9450020E94BE0861E08091EA
:103F500094040E94750910921A038093190383E256
:103F600094E00E940402182F682F6F76606180E051
:103F70000E94A00A63E08EEF0E94A00A612F80E0F9
:103F80000E94A00A65E070E080E090E00E94DB18EB
:103F9000612F616A80E00E94A00A10E020E030E01A
:103FA00040E050E0612F84E994E00E9415041F5F17
:103FB0001031A1F7C12CD12C88ECE82E82E4F82E28
:103FC000C0924304D0924404E0924504F092460427
:103FD0000E942009C0924704D0924804E09249040C
:103FE000F0924A040E94200980E090E00E9461085B
:103FF0006B017C01609306017093070180930801B7
:104000009093090184E090E00E94610860930A01A6
:1040100070930B0180930C0190930D01C0923704B3
:10402000D0923804E0923904F0923A04C0923B04F2
:10403000D0923C04E0923D04F0923E040E9420099C
:1040400088E180932F040E947A0A86E00E94B909D1
:104050008435910531F487E00E94B90981159440B7
:1040600031F10E9415194B015C01DC01CB0188196B
:104070009909AA09BB0988389341A105B105CCF477
:1040800061E083E00E946F1864E670E080E090E0F9
:104090000E94DB1860E083E00E946F1864E670E025
:1040A00080E090E00E94DB180E941519DECF0E948C
:1040B000A50680910F0190911001A0911101B0917E
:1040C00012018093A0049093A104A093A204B09342
:1040D000A304C0929C04D0929D04E0929E04F092AE
:1040E0009F0485E00E941216892B39F584E00E9416
:1040F0001216892B11F583E090E0A0E0B0E08D87E7
:104100009E87AF87B88BBE01635F7F4F88E090E0EA
:104110000E94710661E087E00E946F1861E086E00E
:104120000E946F1885E00E941216892BD9F384E053
:104130000E941216892BB1F32CC085E00E94121642
:10414000892B91F481E090E0A0E0B0E0898B9A8B1C
:10415000AB8BBC8BBE016F5E7F4F88E090E00E940E
:10416000710661E087E0DCCF84E00E941216892BA3
:10417000C9F682E090E0A0E0B0E08D8B9E8BAF8B23
:10418000B88FBE016B5E7F4F88E090E00E947106A1
:10419000C5CF60E087E00E946F1860E086E00E9473
:1041A0006F1888E090E00E94610862307105810517
:1041B0009105C9F48CE290E00E94CC248C012DEA98
:1041C00031E0DC012D933D93CD016BEC71E00E9459
:1041D000CE0C8DE891E0F801918380831093A604C2
:1041E0000093A50421C06330710581059105F9F4A0
:1041F00088E290E00E94CC248C012DEA31E0DC01C1
:104200002D933D93CD016BEC71E00E94CE0C8DE9B6
:1042100091E0F801918380831093A6040093A50494
:1042200061E087E00E946F1861E086E023C08BE4C4
:1042300090E00E94CC248C012DEA31E0DC012D932A
:104240003D93CD016BEC71E00E94CE0C8DEB91E0C3
:10425000F8019183808383E2E6E6F1E0D801989645
:1042600001900D928A95E1F71093A6040093A5049E
:1042700061E087E00E946F1868EE73E080E090E0F4
:104280000E94DB1860E087E00E946F1860E086E023
:104290000E946F188091A5049091A604DC01ED9115
:1042A000FC910190F081E02D099580910A01909197
:1042B0000B01A0910C01B0910D0184369105A1056F
:1042C000B105BCF480E395E7A0E0B0E080930A017B
:1042D00090930B01A0930C01B0930D01898F9A8FDD
:1042E000AB8FBC8FBE01675E7F4F84E090E00E9481
:1042F00071066BEC71E0CE0107960E94CE0C8091A6
:10430000A5049091A604DC01ED91FC910280F3815B
:10431000E02D09958823D1F16091A5047091A60440
:10432000DB01ED91FC910480F581E02DCE01019639
:104330000995BE016F5F7F4FCE0107960E94B70BB4
:10434000CE0101960E94B70C6BEC71E0CE0107968E
:104350000E94160B81111AC00091A5041091A604A9
:10436000D801ED91FC91E680F780BE01695F7F4F37
:10437000CE0101960E94C50CBE016F5F7F4FC80140
:10438000F7010995CE0101960E94B70C0E941519FC
:10439000C0909804D0909904E0909A04F0909B0407
:1043A0006C157D058E059F0558F40E9415196093C4
:1043B00098047093990480939A0490939B0435C059
:1043C0000E941519DC01CB018C199D09AE09BF09AA
:1043D0008B3F9105A105B10540F185E00E94B90927
:1043E0008C01BC017F7080E090E00E94972E20E05D
:1043F00030E040E85DE30E94F82E14FF06C020E0A4
:1044000030E040E853E40E94572360930F0170931B
:104410001001809311019093120181E00E94B9096B
:1044200091600E9456090E94A50685E00E9412161E
:104430007C0184E00E9412168C01EF2851F421E0E7
:1044400030E040E050E067E070E085E090E00E94FE
:10445000ED07012B71F420910A0130910B0140917D
:104460000C0150910D0166E070E084E090E00E9444
:10447000ED078091A404882309F46BC080910E019C
:10448000811167C080909C0490909D04A0909E0430
:10449000B0909F042091A0043091A1044091A20407
:1044A0005091A30460910F0170911001809111014E
:1044B000909112010E945723209100013091010137
:1044C00040910201509103010E94F82E6B017C0182
:1044D000C501B4010E94992E9B01AC01C701B60130
:1044E0000E9458230E9436246B017C0168197909C7
:1044F0008A099B090E94992E9F7720E030E040E2D4
:1045000051E40E946C24181624F5C701B6010E94DC
:10451000CD070E94940781E080930E0180919C0456
:1045200090919D04A0919E04B0919F048C159D05CF
:10453000AE05BF0534F460E087E00E946F1861E0CB
:1045400005C061E087E00E946F1860E086E00E948D
:104550006F1881E00E94DC06811106C064E670E0FD
:1045600080E090E00E94DB18CE0107960E94B70C15
:104570000E945413BECE0F931F93CF93DF931F92CD
:10458000CDB7DEB78C01609100017091010180917F
:1045900002019091030129830E943624298121334D
:1045A00031F41616170618061906B4F404C02033A1
:1045B00099F497FF11C090958095709561957F4F04
:1045C0008F4F9F4F0E94992E6093000170930101BD
:1045D00080930201909303016AE870E0C8010E9491
:1045E000BC0CC8010F90DF91CF911F910F910895DE
:1045F000AF92BF92CF92DF92EF92FF920F931F93F1
:10460000CF93DF93CDB7DEB728970FB6F894DEBF10
:104610000FBECDBF8C015A01609100017091010164
:1046200080910201909103010E943624F62EE72E1C
:10463000D82EC92E60E070E0C5010E94E90ACF9231
:10464000DF92EF92FF92FC018081282F082E000C50
:10465000330B3F938F9389EA92E09F938F93CE0120
:1046600001967C019F938F930E94F726B701C801A2
:104670000E94CE0C0FB6F894DEBF0FBECDBFC801AE
:1046800028960FB6F894DEBF0FBECDBFDF91CF9155
:104690001F910F91FF90EF90DF90CF90BF90AF9060
:1046A0000895EE0FFF1F0590F491E02D09945058E6
:1046B000BB27AA270E946F230C947C2F0E946E2F89
:1046C00038F00E94752F20F039F49F3F19F426F43A
:1046D0000C946B2F0EF4E095E7FB0C94652FE92FFB
:1046E0000E948D2F58F3BA17620773078407950746
:1046F00020F079F4A6F50C94AF2F0EF4E0950B2E74
:10470000BA2FA02D0B01B90190010C01CA01A00123
:104710001124FF27591B99F0593F50F4503E68F17E
:104720001A16F040A22F232F342F4427585FF3CFBF
:10473000469537952795A795F0405395C9F77EF490
:104740001F16BA0B620B730B840BBAF09150A1F0D9
:10475000FF0FBB1F661F771F881FC2F70EC0BA0F5F
:10476000621F731F841F48F4879577956795B795E7
:10477000F7959E3F08F0B0CF9395880F08F09927E2
:10478000EE0F9795879508950E94D8230C947C2F5F
:104790000E94752F58F00E946E2F40F029F45F3F61
:1047A00029F00C94652F51110C94B02F0C946B2FA1
:1047B0000E948D2F68F39923B1F3552391F3951B34
:1047C000550BBB27AA2762177307840738F09F5F32
:1047D0005F4F220F331F441FAA1FA9F335D00E2E9F
:1047E0003AF0E0E832D091505040E695001CCAF70C
:1047F0002BD0FE2F29D0660F771F881FBB1F2617CF
:1048000037074807AB07B0E809F0BB0B802DBF01A5
:10481000FF2793585F4F3AF09E3F510578F00C9474
:10482000652F0C94B02F5F3FE4F3983ED4F3869548
:1048300077956795B795F7959F5FC9F7880F911D95
:104840009695879597F90895E1E0660F771F881F81
:10485000BB1F621773078407BA0720F0621B730B34
:10486000840BBA0BEE1F88F7E09508950E943D2453
:104870006894B1110C94B02F08950E94952F88F080
:104880009F5798F0B92F9927B751B0F0E1F0660F14
:10489000771F881F991F1AF0BA95C9F714C0B13055
:1048A00091F00E94AF2FB1E008950C94AF2F672FC5
:1048B000782F8827B85F39F0B93FCCF38695779584
:1048C0006795B395D9F73EF490958095709561956D
:1048D0007F4F8F4F9F4F08950E94D42E08F48FEF83
:1048E000089519F416F40C946B2F0C94B7240E94BD
:1048F000952FB8F39923C9F3B6F39F57550B87FF4C
:104900000E94C5240024A0E640EA900180585695F4
:10491000979528F4805C660F771F881F20F0261774
:104920003707480730F4621B730B840B20293129A9
:104930004A2BA69517940794202531254A2758F726
:10494000660F771F881F20F026173707480730F4B7
:10495000620B730B840B200D311D411DA09581F757
:10496000B901842F9158880F9695879508959F3F98
:1049700031F0915020F4879577956795B795880F1A
:10498000911D9695879597F9089591505040660F1F
:10499000771F881FD2F70895CF93DF938230910558
:1049A00010F482E090E0E091BA04F091BB0420E0C2
:1049B00030E0C0E0D0E0309711F1408151814817DC
:1049C0005907C0F04817590761F4828193812097F5
:1049D00019F09B838A832BC09093BB048093BA0405
:1049E00026C02115310519F04217530718F49A0112
:1049F000BE01DF01EF010280F381E02DDCCF211544
:104A0000310509F1281B390B2430310590F4129639
:104A10008D919C9113976115710521F0FB01938392
:104A2000828304C09093BB048093BA04FD01329644
:104A300044C0FD01E20FF31F81939193225031098D
:104A40002D933C933AC02091B8043091B904232BA4
:104A500041F420911501309116013093B90420934F
:104A6000B80420911301309114012115310541F44E
:104A70002DB73EB74091170150911801241B350BFB
:104A8000E091B804F091B904E217F307A0F42E1BEB
:104A90003F0B2817390778F0AC014E5F5F4F2417A2
:104AA000350748F04E0F5F1F5093B9044093B80488
:104AB0008193919302C0E0E0F0E0CF01DF91CF91CC
:104AC00008950F931F93CF93DF93009709F48CC041
:104AD000FC013297138212820091BA041091BB0438
:104AE0000115110581F420813181820F931F2091DE
:104AF000B8043091B9042817390779F5F093B9044F
:104B0000E093B80471C0D80140E050E0AE17BF0791
:104B100050F412962D913C911397AD01211531055A
:104B200009F1D901F3CF9D01DA013383228360813A
:104B30007181860F971F8217930769F4EC01288112
:104B40003981260F371F2E5F3F4F318320838A81A3
:104B50009B8193838283452B29F4F093BB04E093DC
:104B6000BA0442C01396FC93EE931297ED0149915B
:104B700059919E01240F351FE217F30771F48081CC
:104B80009181840F951F029611969C938E9382813A
:104B9000938113969C938E931297E0E0F0E0D801F6
:104BA00012968D919C911397009719F0F8018C0142
:104BB000F6CF8D919C9198012E5F3F4F820F931FEE
:104BC0002091B8043091B9042817390769F4309757
:104BD00029F41092BB041092BA0402C0138212820C
:104BE0001093B9040093B804DF91CF911F910F91F6
:104BF0000895A0E0B0E0EFEFF5E20C942C30EC016A
:104C0000009721F4CB010E94CC24B8C0FC01E60F30
:104C1000F71F9C0122503109E217F30708F4ACC0DA
:104C2000D9010D911C91119706171707B0F00530A7
:104C3000110508F49FC0C80104978617970708F468
:104C400099C002501109061B170B019311936D9324
:104C50007C93CF010E9461258DC05B01A01AB10A2F
:104C60004C01800E911EA091BA04B091BB0440E0AB
:104C700050E0E12CF12C109709F44AC0A815B905B1
:104C8000D1F56D907C901197630182E0C80ED11C24
:104C9000CA14DB0480F1A3014A195B096A0182E0AE
:104CA000C80ED11C1296BC9012971396AC91B5E029
:104CB000CB16D10440F0B282A38351834083D90143
:104CC0006D937C930AC00E5F1F4FC301800F911F2D
:104CD000F90191838083EB2DFA2FE114F10431F077
:104CE000D7011396FC93EE93129744C0F093BB0444
:104CF000E093BA043FC08D919C91119748175907D2
:104D000008F4AC017D0112960D90BC91A02DB3CF9B
:104D10008091B8049091B90488159905E1F446177B
:104D20005707C8F48091130190911401009741F442
:104D30008DB79EB74091170150911801841B950BB8
:104D4000E817F907C8F4F093B904E093B804F9013F
:104D5000718360830FC0CB010E94CC247C0100973B
:104D600059F0A801BE010E94D026CE010E94612503
:104D7000C70104C0CE0102C080E090E0CDB7DEB72D
:104D8000EEE00C94483081E090E0F8940C946E30A2
:104D90009111089581568A5108F4805285580895DA
:104DA000FB01DC0102C001900D9241505040D8F748
:104DB0000895FB01DC018D91019080190110D9F358
:104DC000990B0895FB01DC0101900D920020E1F7A1
:104DD0000895FB01DC014150504030F08D9101906D
:104DE000801919F40020B9F7881B990B0895AEE0DB
:104DF000B0E0EDEFF6E20C9436300D891E8986E0C6
:104E00008C831A8309838FEF9FE79E838D83AE0186
:104E1000475E5F4F6F89788DCE0101960E941A27F9
:104E20002F813885F801E20FF31F10822E96E4E0FF
:104E30000C945230ACE0B0E0E0E2F7E20C942830A1
:104E40007C016B018A01FC0117821682838181FF3C
:104E5000BDC1CE0101964C01F7019381F60193FD8E
:104E6000859193FF81916F01882309F4ABC185324D
:104E700039F493FD859193FF81916F01853229F477
:104E8000B70190E00E940229E7CF512C312C20E09D
:104E90002032A0F48B3269F030F4803259F0833242
:104EA00069F420612CC08D3239F0803339F42160EF
:104EB00026C02260246023C0286021C027FD27C0AF
:104EC00030ED380F3A3078F426FF06C0FAE05F9EE6
:104ED000300D1124532E13C08AE0389E300D11245A
:104EE000332E20620CC08E3221F426FD6BC120646B
:104EF00006C08C3611F4206802C0883641F4F601F1
:104F000093FD859193FF81916F018111C1CF982FFE
:104F10009F7D9554933028F40C5F1F4FFFE3F98376
:104F20000DC0833631F0833771F0833509F05BC0F3
:104F300022C0F801808189830E5F1F4F442443946F
:104F4000512C540115C03801F2E06F0E711CF801AC
:104F5000A080B18026FF03C0652D70E002C06FEF16
:104F60007FEFC5012C870E94F7282C0183012C8537
:104F70002F77222E17C03801F2E06F0E711CF80156
:104F8000A080B18026FF03C0652D70E002C06FEFE6
:104F90007FEFC5012C870E94EC282C012C8520680E
:104FA000222E830123FC1BC0832D90E04816590656
:104FB000B0F4B70180E290E00E9402293A94F4CF65
:104FC000F50127FC859127FE81915F01B70190E0F3
:104FD0000E94022931103A94F1E04F1A510841140D
:104FE000510471F7E5C0843611F0893639F5F801BE
:104FF00027FF07C060817181828193810C5F1F4F01
:1050000008C060817181072E000C880B990B0E5F20
:105010001F4F2F76722E97FF09C09095809570953F
:1050200061957F4F8F4F9F4F2068722E2AE030E0AE
:10503000A4010E943A29A82EA81844C0853729F453
:105040002F7EB22E2AE030E025C0F22FF97FBF2E4E
:105050008F36C1F018F4883579F0B4C0803719F074
:10506000883721F0AFC02F2F2061B22EB4FE0DC0C3
:105070008B2D8460B82E09C024FF0AC09F2F966034
:10508000B92E06C028E030E005C020E130E002C0C3
:1050900020E132E0F801B7FE07C0608171818281B2
:1050A00093810C5F1F4F06C06081718180E090E0AA
:1050B0000E5F1F4FA4010E943A29A82EA818FB2DAD
:1050C000FF777F2E76FE0BC0372D3E7FA51450F460
:1050D00074FE0AC072FC08C0372D3E7E05C0BA2C93
:1050E000372D03C0BA2C01C0B52C34FF0DC0FE0112
:1050F000EA0DF11D8081803311F4397E09C032FF41
:1051000006C0B394B39404C0832F867809F0B39497
:1051100033FD13C030FF06C05A2CB31418F4530CDF
:105120005B18B32CB31468F4B70180E290E03C87BD
:105130000E940229B3943C85F5CFB31410F43B18B8
:1051400001C0312C34FF12C0B70180E390E03C87EE
:105150000E9402293C8532FF17C031FD03C088E759
:1051600090E002C088E590E0B7010CC0832F8678FC
:1051700059F031FF02C08BE201C080E237FD8DE2C1
:10518000B70190E00E940229A51438F4B70180E32A
:1051900090E00E9402295A94F7CFAA94F401EA0DF4
:1051A000F11D8081B70190E00E940229A110F5CF86
:1051B000332009F451CEB70180E290E00E94022929
:1051C0003A94F6CFF7018681978102C08FEF9FEF67
:1051D0002C96E2E10C944430FC0105906150704043
:1051E0000110D8F7809590958E0F9F1F0895FC01B0
:1051F0006150704001900110D8F7809590958E0F06
:105200009F1F08950F931F93CF93DF93FB0123817B
:1052100021FD03C08FEF9FEF28C022FF16C04681FB
:105220005781248135814217530744F4A081B1810D
:105230009D012F5F3F4F318320838C9326813781DF
:105240002F5F3F4F3783268310C0EB01092F182FA4
:105250000084F185E02D0995892BE1F68E819F81EF
:1052600001969F838E83812F902FDF91CF911F9185
:105270000F910895FA01AA27283051F1203181F1C8
:10528000E8946F936E7F6E5F7F4F8F4F9F4FAF4F4E
:10529000B1E03ED0B4E03CD0670F781F891F9A1F61
:1052A000A11D680F791F8A1F911DA11D6A0F711D15
:1052B000811D911DA11D20D009F468943F912AE021
:1052C000269F11243019305D3193DEF6CF01089509
:1052D000462F4770405D4193B3E00FD0C9F7F6CF3A
:1052E000462F4F70405D4A3318F0495D31FD405202
:1052F000419302D0A9F7EACFB4E0A6959795879598
:1053000077956795BA95C9F7009761057105089576
:105310009B01AC010A2E0694579547953795279522
:10532000BA95C9F7620F731F841F951FA01D0895BA
:10533000EF920F931F93CF93DF93E80147FD02C0D5
:1053400034E001C034E1E42F440FFF0BF7FF03C04A
:10535000F195E195F109E32E022F2E2FAE010E9467
:10536000192CCE01DF91CF911F910F91EF900895ED
:10537000A0E0B0E0EEEBF9E20C9428305C016B01A8
:105380007A016115710519F0FB0191838083E114A5
:10539000F10429F0C7010297839708F0F1C0E501F5
:1053A0002196F5011081812F90E00E94DB2B892B43
:1053B00011F05E01F4CF1D3229F42196F50111811F
:1053C00001E007C01B3221F4E5012296F5011181AD
:1053D00000E0E114F10459F1F0E1EF16F10461F499
:1053E0001033E1F488818F7D883569F51981229623
:1053F000026070E1E72EF12C88E0E816F10439F143
:105400002CF4F2E0EF16F104C9F12AC08AE0E816A4
:10541000F10479F0E0E1EE16F10411F550E1E52E2A
:10542000F12C812C912CA12C68E0B62E2CC01033CD
:10543000C9F23AE0E32EF12C4CEC842E982CA82CE7
:105440004CE0B42E20C010E3E114F104A9F698E07A
:10545000E92EF12C812C912CA12C20E1B22E13C02D
:1054600060E070E080E090E897010F2C000C440BA6
:10547000550B0E94DC2F49015A0105C0812C912C4B
:10548000A12C80E4B82E60E020E030E0A9012701E3
:105490000F2C000C660877081E01E0EDE10FEA30E2
:1054A00060F08FEB810F8A3110F4E9EC05C08FE9D1
:1054B000810F8A3128F5E9EAE10F8E2F90E08E15F1
:1054C0009F05F4F467FD18C082169306A406B5067E
:1054D00090F0C301B2010E94CC2F9B01AC012E0FB2
:1054E000311D411D511D213031054105F0E85F0797
:1054F00010F461E001C06FEF2196F1011081CCCF73
:10550000802F8170C114D10471F0662329F0219796
:10551000F601D183C08307C001FF19C02297F601AD
:10552000D183C08314C067FF12C0811105C02FEF63
:105530003FEF4FEF5FE704C020E030E040E050E88D
:1055400082E290E09093BD048093BC0416C088234F
:1055500041F050954095309521953F4F4F4F5F4F0B
:105560000CC057FF0AC082E290E09093BD04809384
:10557000BC042FEF3FEF4FEF5FE7B901CA0104C052
:1055800060E070E080E090E0CDB7DEB7E2E10C943F
:105590004430A6E0B0E0EFECFAE20C9428305C0175
:1055A0006B017A016115710519F0DB018D939C93F4
:1055B000E114F10429F0C7010297839708F0DCC0D9
:1055C0003501BFEF6B1A7B0AF5011081812F90E046
:1055D0000E94DB2B892B11F05301F2CF1D3249F4CD
:1055E0003501F2E06F0E711CD50111961C9101E09E
:1055F00009C01B3231F43501B2E06B0E711CF501AC
:10560000118100E0E114F10409F4C4C0F0E1EF16E7
:10561000F10489F4103399F5D3018C918F7D88358D
:1056200009F0B2C011961C91B2E06B0E711C0260C1
:1056300050E1E52EF12CEAE0EE16F10409F4B0C0D9
:10564000F0E1EF16F104D9F028E0E216F10451F48C
:1056500038E0E32EF12C88248A94982CA82C4FE172
:10566000B42E13C06FEF7FEFCB0197010F2C000C0E
:10567000440B550B0E94DC2F49015A0106C08824B7
:105680008A94982CA82C2FE0B22E7E826D8260E046
:1056900020E030E0A90127010F2C000C66087708F4
:1056A0002D803E80E0EDE10FEA3060F08FEB810F5E
:1056B0008A3110F4E9EC05C08FE9810F8A3190F549
:1056C000E9EAE10F8E2F90E08E159F055CF56F3FA4
:1056D00009F182169306A406B506D8F0C301B201FB
:1056E0000E94CC2F2E2F30E040E050E029833A83F7
:1056F0004B835C83260F371F481F591F89819A816E
:10570000AB81BC81281739074A075B0710F061E0BD
:1057100001C06FEFED81FE813196FE83ED83D101F3
:105720001C91BECFC114D10489F0662339F08D815C
:105730009E810197F6019183808308C001FF06C016
:105740008D819E810297D6018D939C9300FF07C0A7
:1057500050954095309521953F4F4F4F5F4F67FFD4
:1057600010C082E290E09093BD048093BC046FEF80
:105770007FEF8FEF9FEF1BC060E070E080E090E074
:1057800016C0B901CA0113C010E3E114F10409F411
:105790005FCF51CF103309F43FCF9AE0E92EF12CBF
:1057A00089E9882E982CA82C89E1B82E6ECF2696F0
:1057B000E2E10C94443091110C947F2E803219F068
:1057C00089508550C8F70895FB01DC0105900D92C2
:1057D0000020E1F70895FC0105900020E9F780958D
:1057E00090958E0F9F1F0895BB274A3031F499235F
:1057F00022F4BDE2909581959F4F0C94002CBB271D
:10580000FB015527AA27880F991FAA1FA41710F07C
:10581000A41B83955051B9F7A05DAA3308F0A95D88
:10582000A193009779F7B111B1931192CB010C9428
:10583000822E4F925F926F927F929F92AF92BF9211
:10584000CF92DF92EF92FF920F931F93CF93DF934C
:10585000CDB7DEB729970FB6F894DEBF0FBECDBF28
:105860006A01122FB02E2BE3201720F0FF24F394AF
:10587000F00E02C0BCE3FB2E0F2D27E0AE014F5F00
:105880005F4F0E94A72DAC018981982F99709130AC
:1058900031F0E1FC06C0E0FE06C090E205C09DE2EA
:1058A00003C09BE201C090E0EE2DE07183FF3CC09D
:1058B000911102C083E001C084E0811718F4212F08
:1058C000281B01C020E0E1110BC0F601822F30E25D
:1058D000882319F031938150FBCFC20ED11C20E0F8
:1058E000992329F0D6019C93F60131966F01C601E8
:1058F0000396E2FE0AC03EE4D6013C9341E41196D1
:105900004C93119712963C9306C03EE6F601308305
:1059100041E641833283FC01322F40E2332309F414
:1059200042C041933150FACF82FF44C0911102C06E
:1059300083E001C084E0811718F4212F281B01C0E7
:1059400020E0E1110BC0F601822F30E2882319F02C
:1059500031938150FBCFC20ED11C20E0992329F056
:10596000D6019C93F60131966F01C6010396E2FEC3
:105970000BC039E4D6013C933EE411963C93119759
:1059800036E412963C9307C039E6F60130833EE6D2
:10599000318336E63283FC01322F40E2332319F0A3
:1059A00041933150FBCFFC01E20FF11D10828EEFCD
:1059B0009FEFB7C0F1E0911101C0F0E06F2F70E0F0
:1059C0001416150624F49A012F5F3F4F02C021E000
:1059D00030E0260F371FBB2029F06B2D70E06F5F82
:1059E0007F4F02C060E070E0260F371F612F70E02C
:1059F000261737071CF4121B212F01C020E03E2D73
:105A0000387159F4D601322F60E2332319F06D93C7
:105A10003150FBCFC20ED11C20E0FF2331F0D60164
:105A20009C93B6016F5F7F4F6B01E1110BC0F601D4
:105A3000922F30E3992319F031939150FBCFC20E8E
:105A4000D11C20E09F2D940F3A81782F7071A72EE2
:105A500084FF03C0313309F49150191624F49930AE
:105A600018F098E001C091E0E42F852F57FF02C0A5
:105A7000E0E080E06E2F782FE0E0F0E0AEE29A2EDA
:105A80003A01691A71082A01461A570A0B2D10E0CB
:105A90001195019511096F3F8FEF780729F4D60111
:105AA0009C92C60101966C014617570784F0661652
:105AB00077066CF47F01E40CF51CA1E0B0E0AC0FBC
:105AC000BD1FEA0EFB1ED7011196BC9002C090E3E9
:105AD000B92E615071093196C60101967C0160179B
